{
  "address": "0x1a205800EA916D38a2B7ED4E32fB82719D72596F",
  "abi": [
    {
      "inputs": [
        {
          "internalType": "uint256",
          "name": "_arbitrationPrice",
          "type": "uint256"
        }
      ],
      "stateMutability": "nonpayable",
      "type": "constructor"
    },
    {
      "anonymous": false,
      "inputs": [
        {
          "indexed": true,
          "internalType": "uint256",
          "name": "_disputeID",
          "type": "uint256"
        },
        {
          "indexed": true,
          "internalType": "contract IArbitrable",
          "name": "_arbitrable",
          "type": "address"
        }
      ],
      "name": "AppealDecision",
      "type": "event"
    },
    {
      "anonymous": false,
      "inputs": [
        {
          "indexed": true,
          "internalType": "uint256",
          "name": "_disputeID",
          "type": "uint256"
        },
        {
          "indexed": true,
          "internalType": "contract IArbitrable",
          "name": "_arbitrable",
          "type": "address"
        }
      ],
      "name": "AppealPossible",
      "type": "event"
    },
    {
      "anonymous": false,
      "inputs": [
        {
          "indexed": true,
          "internalType": "uint256",
          "name": "_disputeID",
          "type": "uint256"
        },
        {
          "indexed": true,
          "internalType": "contract IArbitrable",
          "name": "_arbitrable",
          "type": "address"
        }
      ],
      "name": "DisputeCreation",
      "type": "event"
    },
    {
      "inputs": [],
      "name": "NOT_PAYABLE_VALUE",
      "outputs": [
        {
          "internalType": "uint256",
          "name": "",
          "type": "uint256"
        }
      ],
      "stateMutability": "view",
      "type": "function"
    },
    {
      "inputs": [
        {
          "internalType": "uint256",
          "name": "_disputeID",
          "type": "uint256"
        },
        {
          "internalType": "bytes",
          "name": "_extraData",
          "type": "bytes"
        }
      ],
      "name": "appeal",
      "outputs": [],
      "stateMutability": "payable",
      "type": "function"
    },
    {
      "inputs": [
        {
          "internalType": "uint256",
          "name": "_disputeID",
          "type": "uint256"
        },
        {
          "internalType": "bytes",
          "name": "_extraData",
          "type": "bytes"
        }
      ],
      "name": "appealCost",
      "outputs": [
        {
          "internalType": "uint256",
          "name": "fee",
          "type": "uint256"
        }
      ],
      "stateMutability": "view",
      "type": "function"
    },
    {
      "inputs": [
        {
          "internalType": "uint256",
          "name": "_disputeID",
          "type": "uint256"
        }
      ],
      "name": "appealPeriod",
      "outputs": [
        {
          "internalType": "uint256",
          "name": "start",
          "type": "uint256"
        },
        {
          "internalType": "uint256",
          "name": "end",
          "type": "uint256"
        }
      ],
      "stateMutability": "view",
      "type": "function"
    },
    {
      "inputs": [
        {
          "internalType": "bytes",
          "name": "_extraData",
          "type": "bytes"
        }
      ],
      "name": "arbitrationCost",
      "outputs": [
        {
          "internalType": "uint256",
          "name": "fee",
          "type": "uint256"
        }
      ],
      "stateMutability": "view",
      "type": "function"
    },
    {
      "inputs": [
        {
          "internalType": "uint256",
          "name": "_choices",
          "type": "uint256"
        },
        {
          "internalType": "bytes",
          "name": "_extraData",
          "type": "bytes"
        }
      ],
      "name": "createDispute",
      "outputs": [
        {
          "internalType": "uint256",
          "name": "disputeID",
          "type": "uint256"
        }
      ],
      "stateMutability": "payable",
      "type": "function"
    },
    {
      "inputs": [
        {
          "internalType": "uint256",
          "name": "_disputeID",
          "type": "uint256"
        }
      ],
      "name": "currentRuling",
      "outputs": [
        {
          "internalType": "uint256",
          "name": "ruling",
          "type": "uint256"
        }
      ],
      "stateMutability": "view",
      "type": "function"
    },
    {
      "inputs": [],
      "name": "disputeId",
      "outputs": [
        {
          "internalType": "uint256",
          "name": "",
          "type": "uint256"
        }
      ],
      "stateMutability": "view",
      "type": "function"
    },
    {
      "inputs": [
        {
          "internalType": "uint256",
          "name": "_disputeID",
          "type": "uint256"
        }
      ],
      "name": "disputeStatus",
      "outputs": [
        {
          "internalType": "enum IArbitrator.DisputeStatus",
          "name": "status",
          "type": "uint8"
        }
      ],
      "stateMutability": "view",
      "type": "function"
    },
    {
      "inputs": [
        {
          "internalType": "uint256",
          "name": "",
          "type": "uint256"
        }
      ],
      "name": "disputes",
      "outputs": [
        {
          "internalType": "contract IArbitrable",
          "name": "arbitrated",
          "type": "address"
        },
        {
          "internalType": "uint256",
          "name": "choices",
          "type": "uint256"
        },
        {
          "internalType": "uint256",
          "name": "fee",
          "type": "uint256"
        },
        {
          "internalType": "uint256",
          "name": "ruling",
          "type": "uint256"
        },
        {
          "internalType": "enum IArbitrator.DisputeStatus",
          "name": "status",
          "type": "uint8"
        }
      ],
      "stateMutability": "view",
      "type": "function"
    },
    {
      "inputs": [
        {
          "internalType": "uint256",
          "name": "_disputeID",
          "type": "uint256"
        },
        {
          "internalType": "uint256",
          "name": "_ruling",
          "type": "uint256"
        }
      ],
      "name": "giveRuling",
      "outputs": [],
      "stateMutability": "nonpayable",
      "type": "function"
    },
    {
      "inputs": [],
      "name": "owner",
      "outputs": [
        {
          "internalType": "address",
          "name": "",
          "type": "address"
        }
      ],
      "stateMutability": "view",
      "type": "function"
    },
    {
      "inputs": [
        {
          "internalType": "uint256",
          "name": "_arbitrationPrice",
          "type": "uint256"
        }
      ],
      "name": "setArbitrationPrice",
      "outputs": [],
      "stateMutability": "nonpayable",
      "type": "function"
    }
  ],
  "transactionHash": "0x3351da48742be93921b2df7a18ccde9b9cf6735a43565c077c0eb4b1c01d23f0",
  "args": [
    420
  ],
  "numDeployments": 1,
  "solcInputHash": "f5e5a119a4f008cb375e3decc0be4073",
  "bytecode": "0x6080604052600080546001600160a01b0319163317905534801561002257600080fd5b506040516109fe3803806109fe8339810160408190526100419161004e565b6001908155600255610067565b60006020828403121561006057600080fd5b5051919050565b610988806100766000396000f3fe6080604052600436106100d25760003560e01c80638da5cb5b1161007f578063c97c4d5c11610059578063c97c4d5c14610291578063f23f16e6146102b1578063f7434ea9146102d1578063ffb43c48146102f357600080fd5b80638da5cb5b1461020e578063afe15cfb14610246578063c13517e11461027e57600080fd5b806349912f88116100b057806349912f8814610175578063564a565d1461018a5780637ce5fbe0146101f357600080fd5b806310f169e8146100d75780631c3db16d146101205780632e77c8d21461015f575b600080fd5b3480156100e357600080fd5b5061010a6100f23660046106f3565b60009081526003602052604090206004015460ff1690565b6040516101179190610744565b60405180910390f35b34801561012c57600080fd5b5061015161013b3660046106f3565b6000908152600360208190526040909120015490565b604051908152602001610117565b34801561016b57600080fd5b5061015160025481565b610188610183366004610752565b610313565b005b34801561019657600080fd5b506101e26101a53660046106f3565b6003602081905260009182526040909120805460018201546002830154938301546004909301546001600160a01b03909216939092909160ff1685565b6040516101179594939291906107ce565b3480156101ff57600080fd5b506101516001600160ff1b0381565b34801561021a57600080fd5b5060005461022e906001600160a01b031681565b6040516001600160a01b039091168152602001610117565b34801561025257600080fd5b506102696102613660046106f3565b506000908190565b60408051928352602083019190915201610117565b61015161028c3660046108ae565b610360565b34801561029d57600080fd5b506101886102ac3660046108f5565b61047c565b3480156102bd57600080fd5b506101516102cc3660046108ae565b6104e4565b3480156102dd57600080fd5b506101516102ec366004610917565b5060015490565b3480156102ff57600080fd5b5061018861030e3660046106f3565b6104f3565b60405162461bcd60e51b815260206004820152601760248201527f4e6f7420706f737369626c6520746f2061707065616c2e00000000000000000060448201526064015b60405180910390fd5b600280546000918261037183610954565b9190505590506040518060a00160405280336001600160a01b0316815260200184815260200134815260200160008152602001600060028111156103b7576103b761070c565b8152506003600083815260200190815260200160002060008201518160000160006101000a8154816001600160a01b0302191690836001600160a01b0316021790555060208201518160010155604082015181600201556060820151816003015560808201518160040160006101000a81548160ff021916908360028111156104425761044261070c565b02179055505060405133915082907f141dfc18aa6a56fc816f44f0e9e2f1ebc92b15ab167770e17db5b084c10ed99590600090a392915050565b6000546001600160a01b031633146104d65760405162461bcd60e51b815260206004820181905260248201527f43616e206f6e6c792062652063616c6c656420627920746865206f776e65722e6044820152606401610357565b6104e08282610552565b5050565b6001600160ff1b035b92915050565b6000546001600160a01b0316331461054d5760405162461bcd60e51b815260206004820181905260248201527f43616e206f6e6c792062652063616c6c656420627920746865206f776e65722e6044820152606401610357565b600155565b600082815260036020526040902060018101548211156105b45760405162461bcd60e51b815260206004820152600f60248201527f496e76616c69642072756c696e672e00000000000000000000000000000000006044820152606401610357565b6002600482015460ff1660028111156105cf576105cf61070c565b036106425760405162461bcd60e51b815260206004820152602760248201527f5468652064697370757465206d757374206e6f7420626520736f6c766564206160448201527f6c72656164792e000000000000000000000000000000000000000000000000006064820152608401610357565b6003810182905560048101805460ff1916600290811790915581015460405133916108fc811502916000818181858888f19350505050158015610689573d6000803e3d6000fd5b50805460405163188d362b60e11b815260048101859052602481018490526001600160a01b039091169063311a6c5690604401600060405180830381600087803b1580156106d657600080fd5b505af11580156106ea573d6000803e3d6000fd5b50505050505050565b60006020828403121561070557600080fd5b5035919050565b634e487b7160e01b600052602160045260246000fd5b6003811061074057634e487b7160e01b600052602160045260246000fd5b9052565b602081016104ed8284610722565b60008060006040848603121561076757600080fd5b83359250602084013567ffffffffffffffff8082111561078657600080fd5b818601915086601f83011261079a57600080fd5b8135818111156107a957600080fd5b8760208285010111156107bb57600080fd5b6020830194508093505050509250925092565b600060a0820190506001600160a01b03871682528560208301528460408301528360608301526108016080830184610722565b9695505050505050565b634e487b7160e01b600052604160045260246000fd5b600082601f83011261083257600080fd5b813567ffffffffffffffff8082111561084d5761084d61080b565b604051601f8301601f19908116603f011681019082821181831017156108755761087561080b565b8160405283815286602085880101111561088e57600080fd5b836020870160208301376000602085830101528094505050505092915050565b600080604083850312156108c157600080fd5b82359150602083013567ffffffffffffffff8111156108df57600080fd5b6108eb85828601610821565b9150509250929050565b6000806040838503121561090857600080fd5b50508035926020909101359150565b60006020828403121561092957600080fd5b813567ffffffffffffffff81111561094057600080fd5b61094c84828501610821565b949350505050565b60006001820161097457634e487b7160e01b600052601160045260246000fd5b506001019056fea164736f6c6343000811000a",
  "devdoc": {
    "details": "This is a centralized arbitrator deciding alone on the result of disputes. No appeals are possible.",
    "kind": "dev",
    "methods": {
      "appeal(uint256,bytes)": {
        "details": "Appeal a ruling. Note that it has to be called before the arbitrator contract calls rule.",
        "params": {
          "_disputeID": "ID of the dispute to be appealed.",
          "_extraData": "Can be used to give extra info on the appeal."
        }
      },
      "appealCost(uint256,bytes)": {
        "details": "Cost of appeal. Since it is not possible, it's a high value which can never be paid.",
        "params": {
          "_disputeID": "ID of the dispute to be appealed. Not used by this contract.",
          "_extraData": "Not used by this contract."
        },
        "returns": {
          "fee": "Amount to be paid."
        }
      },
      "appealPeriod(uint256)": {
        "details": "Compute the start and end of the dispute's current or next appeal period, if possible.      If not known or appeal is impossible: should return (0, 0).",
        "params": {
          "_disputeID": "ID of the dispute."
        },
        "returns": {
          "end": "The end of the period.",
          "start": "The start of the period."
        }
      },
      "arbitrationCost(bytes)": {
        "details": "Cost of arbitration. Accessor to arbitrationPrice.",
        "params": {
          "_extraData": "Not used by this contract."
        },
        "returns": {
          "fee": "Amount to be paid."
        }
      },
      "constructor": {
        "details": "Constructor. Set the initial arbitration price.",
        "params": {
          "_arbitrationPrice": "Amount to be paid for arbitration."
        }
      },
      "createDispute(uint256,bytes)": {
        "details": "Create a dispute. Must be called by the arbitrable contract.  Must be paid at least arbitrationCost().",
        "params": {
          "_choices": "Amount of choices the arbitrator can make in this dispute. When ruling ruling<=choices.",
          "_extraData": "Can be used to give additional info on the dispute to be created."
        },
        "returns": {
          "disputeID": "ID of the dispute created."
        }
      },
      "currentRuling(uint256)": {
        "details": "Return the ruling of a dispute.",
        "params": {
          "_disputeID": "ID of the dispute to rule."
        },
        "returns": {
          "ruling": "The ruling which would or has been given."
        }
      },
      "disputeStatus(uint256)": {
        "details": "Return the status of a dispute.",
        "params": {
          "_disputeID": "ID of the dispute to rule."
        },
        "returns": {
          "status": "The status of the dispute."
        }
      },
      "giveRuling(uint256,uint256)": {
        "details": "Give a ruling. UNTRUSTED.",
        "params": {
          "_disputeID": "ID of the dispute to rule.",
          "_ruling": "Ruling given by the arbitrator. Note that 0 means \"Not able/wanting to make a decision\"."
        }
      },
      "setArbitrationPrice(uint256)": {
        "details": "Set the arbitration price. Only callable by the owner.",
        "params": {
          "_arbitrationPrice": "Amount to be paid for arbitration."
        }
      }
    },
    "title": "Centralized Arbitrator",
    "version": 1
  },
  "userdoc": {
    "kind": "user",
    "methods": {},
    "version": 1
  },
  "storageLayout": {
    "storage": [
      {
        "astId": 5282,
        "contract": "contracts/CentralizedArbitrator.sol:CentralizedArbitrator",
        "label": "owner",
        "offset": 0,
        "slot": "0",
        "type": "t_address"
      },
      {
        "astId": 5284,
        "contract": "contracts/CentralizedArbitrator.sol:CentralizedArbitrator",
        "label": "arbitrationPrice",
        "offset": 0,
        "slot": "1",
        "type": "t_uint256"
      },
      {
        "astId": 5296,
        "contract": "contracts/CentralizedArbitrator.sol:CentralizedArbitrator",
        "label": "disputeId",
        "offset": 0,
        "slot": "2",
        "type": "t_uint256"
      },
      {
        "astId": 5301,
        "contract": "contracts/CentralizedArbitrator.sol:CentralizedArbitrator",
        "label": "disputes",
        "offset": 0,
        "slot": "3",
        "type": "t_mapping(t_uint256,t_struct(DisputeStruct)5314_storage)"
      }
    ],
    "types": {
      "t_address": {
        "encoding": "inplace",
        "label": "address",
        "numberOfBytes": "20"
      },
      "t_contract(IArbitrable)7437": {
        "encoding": "inplace",
        "label": "contract IArbitrable",
        "numberOfBytes": "20"
      },
      "t_enum(DisputeStatus)7502": {
        "encoding": "inplace",
        "label": "enum IArbitrator.DisputeStatus",
        "numberOfBytes": "1"
      },
      "t_mapping(t_uint256,t_struct(DisputeStruct)5314_storage)": {
        "encoding": "mapping",
        "key": "t_uint256",
        "label": "mapping(uint256 => struct CentralizedArbitrator.DisputeStruct)",
        "numberOfBytes": "32",
        "value": "t_struct(DisputeStruct)5314_storage"
      },
      "t_struct(DisputeStruct)5314_storage": {
        "encoding": "inplace",
        "label": "struct CentralizedArbitrator.DisputeStruct",
        "members": [
          {
            "astId": 5304,
            "contract": "contracts/CentralizedArbitrator.sol:CentralizedArbitrator",
            "label": "arbitrated",
            "offset": 0,
            "slot": "0",
            "type": "t_contract(IArbitrable)7437"
          },
          {
            "astId": 5306,
            "contract": "contracts/CentralizedArbitrator.sol:CentralizedArbitrator",
            "label": "choices",
            "offset": 0,
            "slot": "1",
            "type": "t_uint256"
          },
          {
            "astId": 5308,
            "contract": "contracts/CentralizedArbitrator.sol:CentralizedArbitrator",
            "label": "fee",
            "offset": 0,
            "slot": "2",
            "type": "t_uint256"
          },
          {
            "astId": 5310,
            "contract": "contracts/CentralizedArbitrator.sol:CentralizedArbitrator",
            "label": "ruling",
            "offset": 0,
            "slot": "3",
            "type": "t_uint256"
          },
          {
            "astId": 5313,
            "contract": "contracts/CentralizedArbitrator.sol:CentralizedArbitrator",
            "label": "status",
            "offset": 0,
            "slot": "4",
            "type": "t_enum(DisputeStatus)7502"
          }
        ],
        "numberOfBytes": "160"
      },
      "t_uint256": {
        "encoding": "inplace",
        "label": "uint256",
        "numberOfBytes": "32"
      }
    }
  }
}